:1008C50042000400004200140000420012000041F2
:1008D500000B004200020000420010000041041A13
:0608E5000042000E0000BD
:0300230002062CA6
:10062C00C0E0C083C082C0D075D000C006C0073007
:10063C009857C2AF90000EE0FEA3E0FFEF6400708D
:10064C0003EE6402603F900002E0FEA3E0FF74162C
:10065C002FF58274003EF583E599F090000FE004CD
:10066C00F0700690000EE004F0900003E004F070CF
:10067C0006900002E004F0900002E0FFEF5401FF4E
:10068C00900002EFF0C298D2AF30997BC2AF9000CD
:10069C0014E0FEA3E0FF74162FF58274023EF5837E
:1006AC00E4F0900015E004F07006900014E004F003
:1006BC00900014E0FFEF5401FF900014EFF0900055
:1006CC0013E024FFF0900012E034FFF090000BE0F8
:1006DC00FFEFB40129900012E0FEA3E0FFD3EF94EA
:1006EC0000EE94004018900014E0FEA3E0FF741696
:1006FC002FF58274023EF583E0FF8F998005900000
:10070C000BE4F0C299D2AFD007D006D0D0D082D0B3
:04071C0083D0E03274
:1007A300900432EFF0900432E0FF900004E0FCA3E9
:1007B300E0FD74162DF58274023CF583EFF0C2AFB1
:1007C300900013E004F07006900012E004F0D2AF42
:1007D300900005E004F07006900004E004F090003F
:1007E30004E0FFEF5401FF900004EFF090000BE0F2
:1007F300FFEF701C90000B7401F0900014E0FEA357
:10080300E0FF74162FF58274023EF583E0FF8F99A3
:0108130022C2
:1008EC0090042CEFF090042DECF0A3EDF090042C80
:1008FC00E0FF8F9E90042DE0FEA3E0FF8F9D759886
:06090C00D0D2ACC2B422FF
:0505340090042FEFF020
:1005390090042FE0FF7E00900010E0FCA3E0FDEFA7
:100549002DFFEE3CFED3EF94FFEE9401406D900039
:1005590010E0FEA3E0FFC3E49FFF74029EFE900437
:1005690030EEF0A3EFF0900430E0FEA3E0FF7D0051
:10057900900010E0FAA3E0FB74162BF974003AFA24
:100589007B0112089990042FE0FF7E00900011E092
:100599002FF0900010E03EF0900010E0FFEF5401C2
:1005A900FF900010EFF0900010E0FEA3E0FF7D0047
:1005B9007B017A007916120899803F90042FE0FF99
:1005C9007E007D00900010E0FAA3E0FB74162BF981
:1005D90074003AFA7B0112089990042FE0FF7E001B
:1005E900900011E02FF0900010E03EF0900010E034
:1005F900FFEF5401FF900010EFF0C2AF90000EE042
:10060900FEA3E0FF90042FE0FD7C00C3EF9DFFEE09
:100619009CFE90000EEEF0A3EFF0D2AF900422748E
:0206290002F0DD
:01062B0022AC
:0D081400900428EEF0A3EFF090042AEDF020
:10082100900428E0FEA3E0FFEEC4F854F0C868FE8F
:10083100EFC4540F48FF8F80900428E0FEA3E0FF2F
:10084100EFC4F8540FC868FFEEC454F048FEEF54EB
:10085100F0FFEF44F0FF90042BEFF090042BE0FF4A
:100861008FA090042AE0FFEF52A0C2B5D2B543A0F9
:01087100F096
:010872002263
:1000260075815043AF817E027F007D007B017A029D
:1000360079161208997E027F007D007B017A00798D
:1000460016120899900004E4F0A3E4F0900014E47A
:10005600F0A3E4F0900012E4F0A3E4F090000BE4C7
:10006600F0900002E4F0A3E4F0900010E4F0A3E4C2
:10007600F090041AE4F090000EE4F0A3E4F090048B
:1000860020E4F0A3E4F09004227402F07D407C00AA
:100096007F821208ECC2B6D2B4D2AF90000CE4F064
:1000A600A37401F0C2B690041B7474F090041C741F
:1000B60044F090041D7455F090041E742DF09004C5
:1000C60018E4F0A37401F0E5905407FF900427EFBD
:1000D600F090000DE024FFF090000CE034FFF020DB
:1000E600B61F90000CE0FEA3E0FFD3EF9410EE9451
:1000F60000500ED2B690000C747FF0A374FFF0800F
:100106001F30B61C90000CE0FEA3E0FFD3EF941066
:10011600EE9400500BC2B690000C7407F0A3E4F006
:10012600900418E0FEA3E0FFD3EF9400EE940040A5
:100136002E7E007F057D007B017A007906120899E4
:10014600900000E4F0A37401F0900416E4F0A3E438
:10015600F0900419E024FFF0900418E034FFF090CA
:100166000000E0FEA3E0FFD3EF9400EE94005003FE
:10017600020206900009E0FF7E00900423EEF0A341
:10018600EFF0900423E0FEA3E0FFEF7806C333CE42
:1001960033CED8F9FF900423EEF0A3EFF0900423BA
:1001A600E0FEA3E0FFEE540FFEEF54C0FF900423E1
:1001B600EEF0A3EFF0900423E0FEA3E0FF9000082A
:1001C600E0FDED543FFD7C00EE4CFEEF4DFF90044C
:1001D60023EEF0A3EFF0900423E0FEA3E0FF7DFE04
:1001E60012081490000AE0FFEF20E004C2B7800274
:1001F600D2B7900001E024FFF0900000E034FFF059
:10020600900416E0FEA3E0FFD3EF9400EE940040C6
:10021600337FFE1207A390041BE0FF1207A390048E
:100226001CE0FF1207A390041DE0FF1207A3900431
:100236001EE0FF1207A3900417E024FFF0900416B7
:10024600E034FFF0900422E0FF7E0090000EE0FC18
:10025600A3E0FDC3ED9FEC9E50030200CD90000E7F
:10026600E0FEA3E0FFEF4E700302052B900010E0C6
:10027600FEA3E0FF900423EEF0A3EFF0900423E04A
:10028600FEA3E0FF74162FF58274003EF583E0FFAF
:10029600900425EFF0900424E004F0700690042307
:1002A600E004F0900423E0FEA3E0FFEE5401FE908C
:1002B6000423EEF0A3EFF0900423E0FEA3E0FF7426
:1002C600162FF58274003EF583E0FF900426EFF0CA
:1002D600900426E0FF900427E0FEEE6F600302051F
:1002E60023900425E0FFEF12087302FDF00335F5B5
:1002F60004E0FE000005189004227402F090042227
:10030600E0FF7E0090000EE0FCA3E0FDC3ED9FEC55
:100316009E50030200CD900419E004F0700690048C
:1003260018E004F0900422E0FF1205340200CD909C
:1003360004227405F0900422E0FF7E0090000EE097
:10034600FCA3E0FDC3ED9FEC9E50030200CD90049C
:1003560024E004F07006900423E004F0900423E007
:10036600FEA3E0FFEE5401FE900423EEF0A3EFF0AF
:10037600900423E0FEA3E0FF74162FF58274003E7E
:10038600F583E0FF900006EFF0900424E004F0709F
:1003960006900423E004F0900423E0FEA3E0FFEEC1
:1003A6005401FE900423EEF0A3EFF0900423E0FE48
:1003B600A3E0FF74162FF58274003EF583E0FF90EC
:1003C6000007EFF0900424E004F07006900423E0A8
:1003D60004F0900423E0FEA3E0FFEE5401FE900437
:1003E60023EEF0A3EFF0900423E0FEA3E0FF7416E3
:1003F6002FF58274003EF583E0FF900008EFF09041
:100406000424E004F07006900423E004F090042332
:10041600E0FEA3E0FFEE5401FE900423EEF0A3EF0E
:10042600F0900423E0FEA3E0FF74162FF58274001B
:100436003EF583E0FF900009EFF0900424E004F01D
:100446007006900423E004F0900423E0FEA3E0FF8E
:10045600EE5401FE900423EEF0A3EFF0900423E0A7
:10046600FEA3E0FF74162FF58274003EF583E0FFCD
:1004760090000AEFF0900424E004F0700690042344
:10048600E004F0900423E0FEA3E0FFEE5401FE90AA
:100496000423EEF0A3EFF0900423E0FEA3E0FF7444
:1004A600162FF58274003EF583E0FF90000BEFF007
:1004B600900000E0FEA3E0FFC3EF94FFEE94FF5030
:1004C6000E900001E004F07006900000E004F09049
:1004D6000422E0FF1205340200CD9004227402F0DB
:1004E600900422E0FF7E0090000EE0FCA3E0FDC336
:1004F600ED9FEC9E50030200CD900417E004F070CF
:1005060006900416E004F0900422E0FF120534027F
:1005160000CD7F011205340200CD0200CD7F01120D
:0D05260005340200CD7F011205340200CD26
:0105330022A5
:03000000020720D4
:0307200002075E6F
:10072300020026E493A3F8E493A34003F68001F2C6
:1007330008DFF48029E493A3F85407240CC8C333D7
:10074300C4540F4420C8834004F456800146F6DFA6
:10075300E4800B01020408102040809008C5E47E69
:10076300019360BCA3FF543F30E509541FFEE4939B
:10077300A360010ECF54C025E060A840B8E493A362
:10078300FAE493A3F8E493A3C8C582C8CAC583CA8D
:10079300F0A3C8C582C8CAC583CADFE9DEE780BE45
:0108EB00000C
:10087300D083D082F8E4937012740193700DA3A314
:1008830093F8740193F5828883E473740293686028
:06089300EFA3A3A380DF28
:10089900EF4E6012EF60010EEDBB010B89828A8376
:1008A900F0A3DFFCDEFA2289F05007F709DFFCA983
:0C08B900F022BBFEFCF309DFFCA9F022DA
:00000001FF
